:020000040000fa
:080000000001040000000000f3
:020000040000fa
:040008002c030000c5
:020000040000fa
:04000c002c030000c1
:020000040000fa
:040010002c030000bd
:020000040000fa
:040014002c030000b9
:020000040000fa
:040018002c030000b5
:020000040000fa
:04001c002c030000b1
:020000040000fa
:040020002c030000ad
:020000040000fa
:040024002c030000a9
:020000040000fa
:04002800580200007a
:020000040000fa
:04002c002c030000a1
:020000040000fa
:040030002c0300009d
:020000040000fa
:040034002c03000099
:020000040000fa
:040038002c03000095
:020000040000fa
:04003c002c03000091
:020000040000fa
:040040003a02000080
:020000040000fa
:04004400fc020000ba
:020000040000fa
:040048002c03000085
:020000040000fa
:04004c002c03000081
:020000040000fa
:040050002c0300007d
:020000040000fa
:040054002c03000079
:020000040000fa
:040058002c03000075
:020000040000fa
:04005c002c03000071
:020000040000fa
:040060002c0300006d
:020000040000fa
:040064002c03000069
:020000040000fa
:04006800d2020000c0
:020000040000fa
:04006c002c03000061
:020000040000fa
:040070002c0300005d
:020000040000fa
:040074002c03000059
:020000040000fa
:040078002c03000055
:020000040000fa
:04007c0084020000fa
:020000040000fa
:040080002c0300004d
:020000040000fa
:040084002c03000049
:020000040000fa
:04008800c8010000ab
:020000040000fa
:04008c00f601000079
:020000040000fa
:040090002c0300003d
:020000040000fa
:040094002c03000039
:020000040000fa
:040098002c03000035
:020000040000fa
:04009c002c03000031
:020000040000fa
:0400a0002c0300002d
:020000040000fa
:0400a4002c03000029
:020000040000fa
:0400a8002c03000025
:020000040000fa
:0400ac002c03000021
:020000040000fa
:0400b0002c0300001d
:020000040000fa
:0400b4002c03000019
:020000040000fa
:0400b8002c03000015
:020000040000fa
:0400bc002c03000011
:020000040000fa
:0400c0002c0300000d
:020000040000fa
:0400c4002c03000009
:020000040000fa
:0400c8002c03000005
:020000040000fa
:0400cc002c03000001
:020000040000fa
:0400d0002c030000fd
:020000040000fa
:0400d4002c030000f9
:020000040000fa
:0400d8002c030000f5
:020000040000fa
:040108002c030000c4
:020000040000fa
:04010c002c030000c0
:020000040000fa
:040110002c030000bc
:020000040000fa
:040114002c030000b8
:020000040000fa
:040118002c030000b4
:020000040000fa
:04011c002c030000b0
:020000040000fa
:040120002c030000ac
:020000040000fa
:040124002c030000a8
:020000040000fa
:040128005802000079
:020000040000fa
:04012c002c030000a0
:020000040000fa
:040130002c0300009c
:020000040000fa
:040134002c03000098
:020000040000fa
:040138002c03000094
:020000040000fa
:04013c002c03000090
:020000040000fa
:040140003a0200007f
:020000040000fa
:04014400fc020000b9
:020000040000fa
:040148002c03000084
:020000040000fa
:04014c002c03000080
:020000040000fa
:040150002c0300007c
:020000040000fa
:040154002c03000078
:020000040000fa
:040158002c03000074
:020000040000fa
:04015c002c03000070
:020000040000fa
:040160002c0300006c
:020000040000fa
:040164002c03000068
:020000040000fa
:04016800d2020000bf
:020000040000fa
:04016c002c03000060
:020000040000fa
:040170002c0300005c
:020000040000fa
:040174002c03000058
:020000040000fa
:040178002c03000054
:020000040000fa
:04017c0084020000f9
:020000040000fa
:040180002c0300004c
:020000040000fa
:040184002c03000048
:020000040000fa
:04018800c8010000aa
:020000040000fa
:04018c00f601000078
:020000040000fa
:040190002c0300003c
:020000040000fa
:040194002c03000038
:020000040000fa
:040198002c03000034
:020000040000fa
:04019c002c03000030
:020000040000fa
:0401a0002c0300002c
:020000040000fa
:0401a4002c03000028
:020000040000fa
:0401a8002c03000024
:020000040000fa
:0401ac002c03000020
:020000040000fa
:0401b0002c0300001c
:020000040000fa
:0401b4002c03000018
:020000040000fa
:0401b8002c03000014
:020000040000fa
:0401bc002c03000010
:020000040000fa
:0401c0002c0300000c
:020000040000fa
:0401c4002c03000008
:020000040000fa
:0401c8002c03000004
:020000040000fa
:0401cc002c03000000
:020000040000fa
:0401d0002c030000fc
:020000040000fa
:0401d4002c030000f8
:020000040000fa
:0401d8002c030000f4
:020000040000fa
:10020000cf9320000eff20000e01880000000000a8
:10021000000020000000e000020032000001200089
:1002200020028800140007000d0107000000e00014
:1002300003003a00a0522500010020000200370010
:100240000000200001002000810f7000010032003a
:1002500014000700000020000000e000020032004f
:100260000000020000000000a84902000000000099
:100270000040da000000fe004440a90040062000d3
:100280000000e0000300320000002000a001880010
:100290004440a800000006008a1f78008b1f7800e9
:1002a0000000060091018800800478000000eb0047
:1002b0001a003700e284440032a0b4009905ba0065
:1002c000e284440032a0b4009906ba00e2844400fb
:1002d00032a0b4000006eb00476fde00fd07b2005d
:1002e000636ce10003003a00ebff07000000eb0045
:1002f0000a003700606ce10004003a00005deb008a
:100300008b05e900fdff3e00040037006168e10055
:10031000010032000086eb000b00070019c7ba008d
:100320001905ba000e04e00003003a000a00e000dc
:10033000e0ff3a0000000600fe07b2009e018800c0
:100340008a047800f5ff3700395dba008b05e900b3
:100350000c003200295dba008b05e900080032006c
:100360000c00e00003003a00e284440032a0b40034
:10037000f5ff370019ddba008b05e900faff3a00f6
:100380008904e800e184440032a0b40000000600c3
:100390003600f800809fbe00829fbe00849fbe0092
:1003a000869fbe003400f80000002000a0018800f5
:1003b0000200fa008700a900e0108000004f7800da
:1003c0009e40780020832000032007000080fa0070
:1003d0003400f9004f03be004f02be004f01be00c3
:1003e0004f00be003600f900004006003600f8005d
:1003f000809fbe00829fbe00849fbe00869fbe007d
:100400003400f80000002000a00188000200fa007b
:100410008720a900080037008e007800a083200004
:100420000e200700e10f500009003a001e4078003e
:100430000000fb00d0108800c110800000202000c8
:10044000008060000000e000f3ff32000100370090
:10045000000000000080fa003400f9004f03be00e5
:100460004f02be004f01be004f00be003600f90033
:1004700000400600801f78003400f80000002000d3
:10048000a00188000000fa0084c0a90011e1a900c1
:10049000100020000040880010002000304088003c
:1004a0000080fa003400f9004f0078000040060098
:1004b0003600f800809fbe00829fbe00849fbe0071
:1004c000869fbe003400f80000002000a0018800d4
:1004d0000000fa008400a9008c00a900e1012000be
:1004e00040002000e52607000080fa003400f900f3
:1004f0004f03be004f02be004f01be004f00be00c2
:100500003600f900004006003600f800809fbe006b
:10051000829fbe00849fbe00869fbe003400f8000c
:1005200000002000a00188000000fa0086a0a900b9
:100530001fe1a90011e1a9008400a9008c00a80016
:10054000a0168000610060000000e0000d00320095
:1005500020002000004088000628ef000828ef0057
:10056000ca22a90080200700f040800001418000dd
:10057000d4408000e54080000001be000400be00c1
:10058000c92807000080fa003400f9004f03be00bc
:100590004f02be004f01be004f00be003600f90002
:1005a000004006003600f800809fbe00829fbe001b
:1005b000849fbe00869fbe003400f800000020002b
:1005c000a00188000000fa008e00a900e1012000cf
:1005d00030002000a92607000080fa003400f9004e
:1005e0004f03be004f02be004f01be004f00be00d1
:1005f0003600f90000400600809fbe003400f8007d
:1006000000002000a00188000000fa0084e0a9009a
:1006100013e1a9008600a9008e00a800d116800071
:1006200000102000008060000000e00006003200a2
:100630001040800000f0a7000000ea000000e90080
:100640004f00de00104088000080fa003400f900fe
:100650004f00be00004006000040da000000fe002f
:100660000000050014002000ad033700f4ff2f0048
:10067000ab0337000001be003f0007000470a70075
:1006800003f0a1006509b100160032000d0035002d
:100690006828e10006003500f0ff2f00f1ff270079
:1006a0000300e00013003b000100280000000500eb
:1006b00000004000818048008502e900fcff3a000c
:1006c00008003700f88f420002003c008000eb0079
:1006d000000005008100d1000080d3008502e80001
:1006e000fcff3a000300e00002003b006000100045
:1006f000e0801800000006000001be001e00070098
:100700000470a70003f0a10003f8a30013003a004f
:100710006509b10010003200090035006928e100c8
:100720000200350001002800000005000000400024
:10073000818048008502e900fcff3a0000000600c5
:10074000f88f4200050035008100d1000080d30001
:100750008502e800fcff3a00000006008000eb0084
:10076000000005004f89de00820178008703370012
:100770006011b80095033700c70ade00f107b20028
:10078000f50fb20008003200e1cf42000200320053
:100790000170a00024000500810f700001003200ec
:1007a0000408050044000500810f700002003a00b3
:1007b000140005008502e9000000400081c04800e7
:1007c000fcff3b000170a0002400050007f8270093
:1007d000078361000638e10004003a00f7072000b3
:1007e000878361008703710001003a0003f0a200d3
:1007f000889fbe008a9fbe008c9fbe00470ade0015
:100800000480a100c71ade000580a10007002800af
:100810000785600087856100f70f20000720e10051
:100820009e0032000728e1009c003200010678009b
:100830000400e000b4003200f70720008780600069
:100840000170a0000500e000c0003200f7072000a2
:10085000878161000370a000050652000f003a0076
:100860000b50e1000b0032000308e10002003a00e7
:100870000200e1007e003200020450008384580030
:10088000040031000001fd008101fd008402fd0033
:100890008a05fd006044b800210037000520e10012
:1008a00005003d000001fd008101fd008402fd0006
:1008b0008a05fd00050652007a60e100050035005a
:1008c0000170a1004722dd00848070008a807000e2
:1008d000630037006044b800ef02660007ff2f0096
:1008e000070666000500e00006003400f0831200f1
:1008f0008714dd000511de00071bdd000601710015
:100900008519de007060e1000500350009047800fb
:1009100082047800030178008001eb007006560025
:100920000b50e10003003a000200400083804800c1
:100930000400370060041400e0841c00020058002a
:10094000838058000188a300060032008100d10096
:100950000080d3008984d3000884d3000402e80017
:10096000270037000178a30025003a000100e000cd
:10097000030032008186cf00698656000a003700e6
:100980008c0020000000e00004003a00090078001c
:10099000880478000004eb00700252008086cf00cb
:1009a0000d0646000c06e9007060e1000600350007
:1009b0008000780009007800880478000004eb00cb
:1009c00070065600700252000c00e0000c0034006b
:1009d0008c08dd00f00316000703de00868070003f
:1009e0000c00dd00074bde00060070008c4cdd00c3
:1009f0000743de00868474000c44dd000c025200c4
:100a00006120e1002000350061016000070028003e
:100a100087816400f7ff2700878364000703740061
:100a20000300e0000600320082037300040032007d
:100a30000000e800e08048000188a3000e003a00b2
:100a4000f70f20000720e1004a003d000170a100df
:100a50004722dd00810072008a8070000000be0025
:100a60004f06be004f05be004f04be00000006004a
:100a70006000b800faff37008100d1000080d30089
:100a80000402e800eeff37000401780089017400d9
:100a9000a10107008a807000f1ff3700f70107000d
:100aa000070278000001fd008101fd00f30107004d
:100ab00087027800850372000778a30004003200e3
:100ac0000001fd008101fd0006020700e4ff370080
:100ad000850362000768a300080032000b50e100a4
:100ae00003003200f0ff2f00f1ff2700dcff37008a
:100af0000001fd008101fd00d9ff37000468a3005b
:100b0000d7ff3200faff3700f8ff27008883600024
:100b10000b003a000000e00009003a008303640083
:100b200082837300020032000200be00ccff370057
:100b30000b50e100ceff3a000200be00c8ff3700b4
:100b400014002000810064003eff3700f8ff2700fa
:100b50008883610004003a000200e00002003a00cd
:100b60008c007800beff3700150020008301640070
:100b700039ff370001f827000000200081007500d0
:100b8000b7ff3700889fbe008a9fbe008c9fbe00c3
:100b90001b0020000202be00058668000600280037
:100ba000060666004709de00f20fb200820032003e
:100bb0000243e80080003200c729de00f30fb200d4
:100bc0007d0032000343e8007b003200f107b200f1
:100bd0000170a000f507b2000570a000c708dd0095
:100be0004903de00868070004700dd00c72add0073
:100bf0004923de00868272004722dd000305510092
:100c000004035000858358000300310000004000b9
:100c1000818048000a05e9008c1f78008a9fbe0089
:100c200004005000858058000402420085824a007a
:100c300000004000818048000005eb000004be0079
:100c40006033b8000406be000d48e10056003100d4
:100c5000110009004dccd8000c01b8000d02b800fd
:100c60008481410060824a008283530003045c0057
:100c700084845c0060055d000a00e00025003a0005
:100c8000800578000d40e1004900310088007800bf
:100c900007007800110009004d88d8000c01b80049
:100ca0000d02b8008481410060824a006003110097
:100cb00083835b0004045c00e0845c000900e000c6
:100cc00021003a004f01be000300e0002b0032007b
:100cd000e3016000070673008c817100010032009f
:100ce000640070004200de004e5edd000c0070000b
:100cf000c258de0001e0a00083010700cf017800a8
:100d0000818071004f06be004f05be004f04be003b
:100d1000000006008c8343000d044c00e0844c006e
:100d200060054d000000e9000a00e000d4ff320039
:100d30008c8343000d044c00e0844c0060054d00a2
:100d40000000e900ceff37000c0343008d834b0009
:100d500060044c00e0844c000000e9000900e00061
:100d6000d8ff32000c0343008d834b0060044c001d
:100d7000e0844c000000e900d2ff37004200de00b2
:100d80004e5edd000c007000c258de0001e0a000e5
:100d9000cf0178000300e000daff320060001000ad
:100da000e0801800d7ff3700f0ff2f00aaff3700c0
:100db000f0ff2f00b9ff37000404be002f01070029
:100dc000870678000004fd008104fd002b01070068
:100dd000078366000678a300030032000960a700bd
:100de0000800be002c0037000d78a300020032007e
:100df0000800be00280037000778a30026003a004c
:100e000001f0a10009f0a1000668a3000300320070
:100e1000f1ff2700f0ff2f00baff37000d68a30095
:100e2000030032000800be008c807000b5ff370060
:100e30000768a30007003a000648a3000300320039
:100e4000f1ff2700f0ff2f00aeff37000d48a30091
:100e5000030032006000b8008c807000a9ff3700ea
:100e60000748a3000400320001f82700000020001a
:100e70008c807000a3ff3700760107000004fd009e
:100e80008104fd0002057800720107000802be001f
:100e90008a01780059ff37000160a000120220008b
:100ea0009246880097ff37000100e00012003200f0
:100eb0000500e00010003200889fbe008a9fbe003f
:100ec0008c9fbe000006eb0001f8a3000300320077
:100ed00060001000e08018000cf0a00005f8a300ee
:100ee0000300320060021200e0821a000cf0a2003f
:100ef0008005eb0041ff37006000b80002000500ec
:100f0000038368000700280007036300470ade0028
:100f10000480a100c71ade000580a100f70f2000a1
:100f20000720e100420032000728e10040003200c3
:100f3000889fbe008a9fbe008c1f7800f107b20018
:100f4000f307b2000400e000640032000170a0006a
:100f50000500e000680032000370a0008505420033
:100f6000eb07b1000204b8000302b8008484440017
:100f700060854a00020ab800848444000a854a0059
:100f8000030ab80004054500040033000804d0003b
:100f90008984d2000a85d2008b05e9006158e100fe
:100fa0003d00350002102000090161000308200007
:100fb00089816100f7072000878364000886730039
:100fc000c84cde00c853dd00878474004855de003d
:100fd0000300e000060032008203760004003200c5
:100fe0008904e80060054d000a88a3000c003a005f
:100ff000f70f20000758e10044003d000a70a100ef
:10100000c75ddd000a8575008a007300090078005d
:101010004f0678004f05be004f04be0000000600da
:101020000a05d1008984d3008b05e800f0ff370062
:10103000881f7800060478009000070007027800f7
:101040000001fd008101fd008c000700870278008f
:10105000850372000778a300050032000001fd003f
:101060008101fd009f0007004f047800000006008a
:10107000850372000748a30003003200f0ff2f0031
:10108000f1ff2700f8ff37000000200001f82700db
:1010900088807000f4ff3700880178004848dd0040
:1010a000808171004848de00c850dd0001007000fa
:1010b000c850de00060478000b0178001600070017
:1010c00088807000d2ff37000500e0000500320084
:1010d000170020003a0007009dff370081037000d1
:1010e000f9ff3a00860078004f0678004f05be00f1
:1010f0004f04be000000050083037100f9ff3200b9
:10110000270020002e00070094ff370001f8270079
:1011100086807000f4ff37000100e00026003200f6
:10112000610111007810e10023003c006022b8004a
:101130007010e100040035008002780001007800a2
:101140008000eb00700151000200e0000900340053
:1011500070031100062add00822ade008603dd000e
:10116000878272000200de00860bdd00070070003f
:101170008208de0084817100f4ff2700048262008f
:101180008481710004002800848262006102600092
:1011900005f0a6000000060004827100070032007e
:1011a0000000e800e0804800000006000002be00e9
:1011b0006000b800efff37006000b80000000600d4
:1011c000889fbe000004eb006138e10016003a0081
:1011d0000100e00008003a00c800de004800dd0021
:1011e000880020000100e00003003a00c800de0093
:1011f0004800dd00680444008184cf00e984540085
:10120000060034008908dd00f08314008703de0047
:10121000878070000900dd000904440061021400a9
:101220004f04be00000006000300e00008003a0082
:10123000c811de004811dd00880020000300e00036
:1012400003003a00c811de004811dd0068044400c4
:101250008384cf00e9845400060034008919dd003e
:10126000f08314008713de00878171000911dd000f
:1012700009044400e1021400e9ff370027002000c0
:1012800001f0a70017002000470bde00f60fb200a8
:10129000040032000643e8000a0032004702b300af
:1012a0000000060001037800f607b2000603700094
:1012b00002003a000703b300000006008702b300f3
:1012c0000000060001037800f607b2000603700074
:1012d000020032000770a000000006000760a000b6
:1012e000000006000478a300040032000578a30083
:1012f000030032000168a30001003a000200be00b2
:101300000160a0000000060081017000270032008b
:101310008002eb0001f8a30003003200600010001f
:10132000e080180015002000f407200002024200af
:1013300020003400f703200087036000060420002b
:101340000003630002082000000161004700de0086
:10135000c909dd0000807100c708de000600e0005a
:101360000800320087037100060032001000b00050
:101370000180b0000188a30002003200c108de0035
:101380000402e800f107b200f30f20000320e1009f
:1013900003003d004722dd00810072002900370074
:1013a00001f827000000eb00260037006000b800bd
:1013b00000000600680212007f20e10002003400f5
:1013c0006000b8001f0037006011b8007020e10015
:1013d0000400350080017800010078008000eb00f7
:1013e000700252000400e00009003400f003120013
:1013f0000719dd008419de000703dd008681710016
:101400000400de00070bdd00060070008408de002b
:10141000f7ff27008383630087037100060028001d
:1014200003036300070032000700e00003003a00f6
:101430006101600002817300020032001000b00000
:101440000180b0000500a6000000060001f0a00029
:10145000000006004f0ade004709de00f107b20077
:10146000f20fb2000b003200f207b1000170a000d1
:10147000c708dd00c901de00838070004700dd0081
:101480000400a6000000060060001000e0801800c4
:1014900000000600810f700001003a000000060005
:1014a0008182cf000500e00010003e008082cf0066
:1014b000ee8242007028e1000400390007003e007f
:1014c000800078000000eb000e00370070831200ef
:1014d0008600de000500dd000a0037007083520040
:1014e0008600dd000000eb0006003700e2825200bb
:1014f0008508dd00708312000603de008680700020
:101500000500dd007507b0000501ea000400a60033
:101510000000060060001000e080180000000600d7
:10152000889fbe008a9fbe00841f78007c00070051
:101530004f00780011003300f0ff2f00838f6c0004
:1015400006003b00040565000a00a70008003700fc
:1015500009f0a6001000200008003700820f540098
:10156000838f5c00030039001000200001003e0062
:101570000000200009f0a7000000ea004f05be00af
:101580004f04be000000e00000000600881f780045
:10159000030478000300e00007003d006000100035
:1015a000e080180060011900e081190002003b0092
:1015b00001f02d00030037000400070008f0a70029
:1015c00001f0a0004f04780000000600889fbe00d4
:1015d0008a9fbe00008270000402710004827100c4
:1015e000260032000004be000200be006011b800f8
:1015f0006b092000950220000182cf000a0039000b
:101600000541b1000082cf00070039000541b1005b
:101610000982cf00040039000541b1000882cf00e3
:10162000010039000541b1000542520012003200ac
:101630000a003b0082817100610164008100d100d9
:101640000080d3008984d3000884d3008b05e80090
:101650000442e800f7ff3a0007003700080444009e
:1016600089844c0000004800818048008b05e90017
:101670000442e900f9ff3a00030007004f05be00ed
:101680004f04be000000060081002000618055006c
:101690000b003d000b00200061fe2f000100e10067
:1016a0001d00340082817100610164008904d10051
:1016b0000884d3000000e800faff3a00710020001f
:1016c0006100640003007000020060000900320045
:1016d00061044400e0844c000988a5000500320044
:1016e0008b05e8006808e10002003a008904d10097
:1016f0000884d300f20f20000258e10005003d00ed
:10170000c75ddd00f907b200898075000800780028
:10171000000006000bf827008b0078000000050091
:101720000004be0014fc07000003be000405be0058
:101730000200be0010fc0700844f75000000060088
:101740008001780002003700b15978000201e900f9
:101750000200e000fcff3a00000006008000780074
:10176000040037003104e00002003a00000051009c
:1017700000000600010178000108a300f9ff3a000b
:101780008101780031017800f4ef2f00020242005d
:101790000281ea00020162000408280004016100dd
:1017a000f7ff320083007800010178003104e00087
:1017b000fdff3a000000510000000600889fbe00b7
:1017c0000004be000800e00003003a00b8498000b1
:1017d0000800e000130032000800be004d000700c2
:1017e000000444001804e00004003a000000eb008c
:1017f000b0498800000478000a0037000800be00e5
:101800000b00070000004400b04988001004e0000d
:10181000020032000058eb00010037000000eb002e
:10182000b0498800080078004f04be0000000600a0
:101830002000fa00889fbe000004be009940780096
:101840000104e00003003200194090000004e000b1
:1018500004003a008100fb0008007800c80007007f
:1018600028003700020220008000eb00c0fd2f009e
:101870000f0040005f000700194078000004e000fe
:1018800002003a00880078000e0037008904e80062
:101890000080fb00c400de006f006000120020002a
:1018a0000010dd0081804000c2fd2f000f014100cb
:1018b000810041001100700080087800eeff3a00be
:1018c000f0ff370001007800114178000204e000c9
:1018d0000c0032008100e8000281fb00ef01610092
:1018e000140020000322dd004411de00020141004b
:1018f000c5fd2f008f824200e501790003016200df
:10190000f0ff3200080050004f04be000080fa00d3
:10191000000006002000fa000f0178000202b1006a
:101920000f0009000019eb00914178000001eb0065
:101930000304e0002c003200114190000204e0009a
:1019400005003a008000780001017800b1cf110055
:10195000fdff320023003700114178000204e0004f
:1019600002003a00800078000e0037008100e80095
:101970000281fb00c411de006f0161001400200031
:101980000221dd008381410004fe2f000f0242008e
:10199000830142001301710082097800eeff3a00d2
:1019a000f0ff370001017800914178000304e00066
:1019b0000c0032008100e8008381fb006f8261002f
:1019c00015002000842add00c419de008381410057
:1019d00006fe2f000f0343006682790084816200b7
:1019e000f0ff3a0000015100020078000080fa0088
:1019f00000000600889fbe008a9fbe008004780019
:101a00000200e0005a00320001407800814c78006a
:101a100082814400f1f99f00e20f5100540036002a
:101a200091449800a1449800e1f99f00d1f99f00ea
:101a3000e60f51004e003600b1449800c1f99f00f6
:101a4000e80f51004a0036000905ea006305650009
:101a50000a8444000a055100c1ff2f0001056500fa
:101a60000080fb008000eb0012102000131020000b
:101a700015130700008cbe000a01440060b99f00e6
:101a800071b99f00e80f5500390036002004980016
:101a900031049800400498005104980020b99f0038
:101aa00031b99f0040b99f0051b99f00f80f550010
:101ab0002f0036006004980071049800000c980014
:101ac000110c9800200c9800310c9800400c9800e4
:101ad000510c980020b19f0031b19f0040b19f0090
:101ae00051b19f0060b19f0071b19f0000b99f008c
:101af00011b99f00640164007801410002044400b0
:101b0000020555006011b8000203be000002be00cd
:101b10000403be006022b8000000720081807200e1
:101b200002017300838173000f0037000802780000
:101b3000009abe00029abe00009abe000292be0049
:101b4000000c9800110c9800220c9800330c98009f
:101b5000400c9800510c9800620c9800730c98008f
:101b60000a02b1000802b000ff0f5500efff3e006f
:101b7000090078004f05be004f04be0000000600bb
:101b8000881f7800000478008180fb000a003a007a
:101b900008007800f1fe0700000044002200370032
:101ba0001804e000200032000804e8001081fb0067
:101bb000810f51001c003200080078000808a300c3
:101bc000f7ff3a0014102000048ab90008017800d9
:101bd00038007800f5ef2f00808242008081ea0013
:101be00083826200030828008382620007003a00b3
:101bf00000006a00f5ef2f00808242000080ea00ba
:101c00000080620083016000f0ff32000200780073
:101c10001204e000040032000201e8009081fb00a1
:101c2000818f5100f9ff3a004f0478000000060050
:101c30000000fa00cfb897006881570083040700be
:101c40000080fa0000000600050007005e000700a3
:101c5000ff020700af030700d70307003103370077
:101c6000ec874700889fbe008a9fbe008c9fbe0005
:101c70008e1f780000067800010478001807900095
:101c80002805900098067800cdb79f00b805900011
:101c90003202be002203be000400be000601be00e8
:101ca0004f18de006011b8008000eb00d0b79f0035
:101cb000e1b79f00f2b79f0083bf9f0080047800c8
:101cc0000900e000060032006000b8006011b800b2
:101cd000040250008582580006035900878359008a
:101ce0000e00e000020035000d10a100cdb79f00ee
:101cf0000900e00005003a004fb097000028a3005b
:101d000002003a000038a300020032008a00e90015
:101d1000010037008a007800f8815700a2002000f7
:101d200008007800290307000900e00003003a00da
:101d3000cfb097000128a300080032000000e9009e
:101d400000814500b1c2b3000900e000010032008b
:101d5000d1c2b30001497800050037000138a30063
:101d6000030032000000e90001c2b3008175780071
:101d7000480190000201e900000151008080450007
:101d80004fb297008a0178000c00780047040700e2
:101d90009c0090000188a30004003200980090008d
:101da000810f500001003d00010078004f077800ce
:101db0004f06be004f05be004f04be00cf00b1006d
:101dc00000000600000006008f04b000889fbe00df
:101dd0008a9fbe008c9fbe008e1f7800809f9f0050
:101de000f19f9f00c3779f0001007800b00078004a
:101df000e1a79f0010007800d0b79f00ff999700df
:101e0000a3019000d3a79f007f9a970044029000ff
:101e1000f4979f00ff9a9700b50690003204be0029
:101e20002205be006022b8006033b8000800be0082
:101e30000a01be00781107000000e00003003d0029
:101e40000bf0a200d0c2b300040037006fa39700cc
:101e50000628a30008003200b0c2b300804e78000c
:101e6000dfa397008703e900c7af9f0010002000a1
:101e7000f0a79f000f003700efa097000138a300e4
:101e80000800320000c2b300804e78005fa19700c6
:101e90000201e900c2af9f0013002000f3a79f00da
:101ea000040037005fa29700c4af9f008002eb00e0
:101eb000f5a79f000800be000a01be00c1ff070091
:101ec000f4ff2f00f5ff2f00f6ff2f00f7ff27008c
:101ed0000402600085826000060361008783610060
:101ee0006000b8000200200003ff27000020e1008e
:101ef00001a8e10002b0e10003b8e10010003a00df
:101f00004f7397008600fb001104b100ffa39700f8
:101f100007804600f98f500002003e0061922000c9
:101f200001003700a192200024100700a092200099
:101f30000afe0700ffa097000101400014003700cf
:101f40000020e10001a8e10002b0e10003b8e100d7
:101f5000120036004f7197008200fb001104b1009f
:101f6000ffa1970003804600f98f500002003e0059
:101f7000e192200001003700219320000f1007009c
:101f800020932000f5fd07007fa297000401400088
:101f90006fa29700dfa19700190237006022b800f6
:101fa0006033b8000800be000a01be001a11070025
:101fb0000000e000680032006000b800020020006d
:101fc00003ff230080af9f0091af9f00a2af9f004f
:101fd000b3af9f000007eb000802be000a03be007b
:101fe000d4af9f00e5af9f00f6af9f0087b79f007b
:101ff000070037000e07e8000800be000a01be0017
:1020000080af9f0091af9f00a2af9f00b3af9f0032
:102010006022b80006002000470224000fa89700a5
:102020009fa897002fa99700bfa99700ac1207009f
:102030000004be000205be000002be000203be0096
:102040005fa89700efa897007fa997008fb197002e
:10205000f11007000000e000e6ff3d000006eb0085
:102060000fac97009fac97002fad9700bfad9700c6
:102070002500370040ed2f00800f570019003d006c
:102080000c00e00016003a006022b80006002000b4
:10209000073524005fa89700efa897007fa9970055
:1020a0008fb197008e1207000002be000203be002f
:1020b000d4af9f00e5af9f00f6af9f0087b79f00aa
:1020c0006022b80006002000073524000800be008a
:1020d0000a01be00821207000004be000205be0015
:1020e0001c0020006022b8000600200047022400e7
:1020f0000800be000a01be00ca1107000004be00ad
:102100000205be000e07e9000802be000a03be0079
:102110005fa89700efa897007fa997008fb197005d
:10212000bd1007000000e000d2ff35000800be002f
:102130000a01be0080af9f0091af9f00a2af9f0039
:10214000b3af9f005fac9700efac97007fad9700f7
:102150008fb59700080037006022b8000600200005
:1021600007ff230084af9f0095af9f00a6af9f009d
:10217000b7af9f000007eb00cf7297000500fb0090
:10218000c50f0700d0779f005fb397006000200065
:102190000600e000010035005fb0970071c6b30093
:1021a000df73970081cf53000a003a00dfb0970039
:1021b0000100e0009b0132009b0137008e0f5000b0
:1021c0009f013c00d0af9f0052c6b30082cf9f005a
:1021d0001e003700df71970083cf9f000200370099
:1021e00064c6b30084cf9f000000e800d0af9f001a
:1021f00060c6b3008fca970080cf520013003a0028
:102200000e00e00008003d006000b8000200200061
:1022100003ff230080af9f0091af9f00a2af9f00fc
:10222000b3af9f000007eb0061c6b30081cf9f00f2
:1022300070c6b3005f719700804f510003003200f9
:10224000dfa997008e814100d3af9f000faa9700ae
:102250009faa97002fab9700bfab970094b79f0042
:10226000a5b79f00b6b79f00c7b79f000800be0084
:102270000a01be00d0b79f00e1b79f00f2b79f00f0
:1022800083bf9f000006eb000802be000a03be00e9
:10229000b49f9f00c59f9f00d69f9f00e79f9f0010
:1022a000310037001fb29700afb297003fb39700dd
:1022b000cfb397005fb09700efb097007fb1970062
:1022c0008fb9970057110700911507000004be0051
:1022d0000205be008d1007008002780085a79f00d0
:1022e0001fb29700afb297003fb39700cfb39700ec
:1022f0000800be000a01be00f91107005fb2970096
:10230000efb297007fb397008fbb9700f4100700e0
:102310000002be000203be0007f0a200d4b79f0077
:10232000e5b79f00f6b79f0087bf9f006022b80007
:1023300006002000470224001fb09700afb09700ae
:102340003fb19700cfb19700361107000002be00e1
:102350000203be0094b79f00a5b79f00b6b79f00c9
:10236000c7b79f000c06e800dfaa9700850f56004c
:10237000ccff35003f9c9700cf9c97005f9d970056
:10238000ef9d97006022b80006002000470124005e
:102390001fb09700afb097003fb19700cfb1970043
:1023a000cf1107000002be000203be0094b79f00d9
:1023b000a5b79f00b6b79f00c7b79f005fb0970053
:1023c000efb097007fb197008fb997001210070008
:1023d0000000e0000f0035001fb29700afb2970079
:1023e0003fb39700cfb397005fb09700efb097006f
:1023f0007fb197008fb99700071007000000e00039
:1024000011003a008fa297000508a30008003200cf
:102410000d0037006000b8006011b80090b79f0051
:10242000a1b79f00b2b79f00c3b79f000600370057
:102430006022b8006033b80094b79f00a5b79f0032
:10244000b6b79f00c7b79f001fb29700afb2970003
:102450003fb39700cfb397000800be000a01be004b
:10246000a51007000002be000203be0084a79f0063
:1024700095a79f00a6a79f00b7a79f0050c6b300cf
:102480008fca970080cf520003003a000003eb0090
:10249000d6b79f0001003700deb79f007fa69700e8
:1024a0000000eb0090b79f00909f9f00b09f9f009f
:1024b0008e007800e1979f00660037000faa970012
:1024c0009faa97002fab9700bfab97000fa0970074
:1024d0009fa097002fa19700bfa19700d1100700e0
:1024e0000b1507000004be000205be000710070020
:1024f00000017800efa197000348a3000c003a0008
:102500000200e0000a003a0070c6b3005f72970054
:10251000804f520006003a00dfb297000500e0004d
:1025200003003d001fb397000607e80020003700b6
:102530009f9b97000700e0000b003a005fb09700f8
:102540000000e00008003d00e0c2b30080767e009d
:102550000c06e800cfa897008100e900c1af9f00fa
:1025600013002000939f9f008c8046001fb79700a8
:102570000300370000c3b300805878000e07e9005d
:102580000e00e000fbff3a001fb297000406460071
:102590000c80460005c3b300054841000c06e80066
:1025a0000480ea004fab970000034300c6af9f00d2
:1025b0000faa97009faa97002fab9700bfab970079
:1025c0000800be000a01be00451107000fa29700d7
:1025d0009fa297002fa39700bfa39700401007006a
:1025e0000002be000203be0007f0a20084a79f0005
:1025f00095a79f00a6a79f00b7a79f006022b800dd
:1026000006002000470224000fa897009fa897000b
:102610002fa99700bfa99700821007000002be00f3
:102620000203be0084af9f0095af9f00a6af9f003e
:10263000b7af9f00dfb297008502e900d5b79f00d2
:102640003f9b97000603e800b69f9f008e0378002b
:1026500097b79f003f989700dfa89700810f500021
:1026600005003d007f9997004200900065005000f2
:10267000800f560091ff39006f9797009f99970040
:102680000300e00006003a006fa297000448a30090
:1026900003003200e0c2b30080767e000c06e80042
:1026a0000c8046000048eb0051c6b3008fca97006b
:1026b00081cf520036003a007f9397008600e900f0
:1026c000018146000049eb008001eb000e00e000b4
:1026d00002003d000e07ea00130020002200200047
:1026e00081037800cfaa9700000478000b00370020
:1026f00081037800a4002000110009000407d8001d
:1027000001027800000778000783460000c3b30089
:10271000004b42000201e9008502e9008700e90060
:102720000e00e000f2ff3a000200e000f0ff3c0083
:10273000c5af9f000800780001824600b2c2b30016
:102740000300e00001003200d2c2b300024a780068
:102750000101e90082804600cf7197000302fb006f
:102760001404b10053c6b300f90f520001003e003b
:1027700053c4b300834878004faa97000482e9004d
:10278000c4af9f00820f5600010031000b0e0700fe
:10279000efa2970063806200e20f500013003a003e
:1027a0004fab97000600e000100034000d007800e9
:1027b000eafb070004003700cfab97008780460094
:1027c000ed7078000000e900ffa19700830f500032
:1027d000f9ff3100038046004fa997000103200054
:1027e00084fc07000002eb00d4a79f000d007800d6
:1027f000dafb07006fa29700dfa1970000017800c5
:102800008d0078000f989700a80107004f07780007
:102810004f06be004f05be004f04be008f04b1003e
:102820000000060010002000e40f470063fe3d009a
:10283000d0af9f0055c6b30085cf9f0083fe370001
:102840000e00e00066fe3500d0af9f0076fe370038
:102850000200fa00889fbe008a9fbe000005780033
:10286000010478000200780018019000a80590008b
:1028700098007800b1bf9f00b80490000200e0000b
:10288000020035000110a100b1bf9f00ea8157008e
:10289000820020008b0078003002be002003be00c2
:1028a00008007800490007003fb99700f000610078
:1028b000030032000000e90001c3b3008174780016
:1028c0003fb99700e8006100030032000000e90012
:1028d00001c2b30081747800480190000201e90050
:1028e00000015100808044003fba97008b017800be
:1028f0000a0078006d0107009a0090000188a3008b
:102900000400320098009000810f500001003d004b
:10291000010078004f05be004f04be000080fa00a1
:1029200000000600ea874700889fbe008a9fbe001d
:102930008e1f78000004780003007800728757002b
:1029400084e2260055c72600049fbe00c3962200dd
:10295000030f78006c875700004feb0011059000c3
:10296000a1049000910578000200e000020032000e
:102970000207780001003700728757000000e0006e
:1029800002003a000e00780074fb07000a00e00025
:10299000030035008a0f5000010036000a0078005d
:1029a0000b02780089017800000178008e00780021
:1029b000080078003d0107004f0778004f05be0072
:1029c0004f04be00af00b10000000600f4874700ce
:1029d000889fbe008a9fbe008c9fbe008e1f78001d
:1029e0000605be000404be0081bf9f0082b79f00a1
:1029f000f3b79f00b0009000e1b79f00130178008b
:102a000092b79f0090069000400690000c06e900e7
:102a10000d00e00001003d001d002000efb1970017
:102a20000c8041000048eb001e0020001f00370012
:102a30000c06e9000fb09700cf80de006109b900f5
:102a4000a0b79f00b1b79f00c2b79f00d3b79f0048
:102a50000203be000002be000800be000a01be0064
:102a6000d912070000077800efb097000c804000f3
:102a700003c3b300034847008d06e9000fb8970071
:102a80000000e90080bf9f002fb29700bfb29700ff
:102a90004fb39700dfb397000800be000a01be00e5
:102aa000c21207000205be000004be000c00e000d8
:102ab0000d003200e00f5400e08f5c00e00f5d007d
:102ac000e08f5d00daff3a000d00e000d8ff3c0027
:102ad0008fb897000100e000030034001fb1970099
:102ae0000218a300d2ff3a000e00e00002003a00f4
:102af000ffb197001340a1000c0078004f07780049
:102b00004f06be004f05be004f04be004f01b1008e
:102b1000000006000200fa00889fbe008a9fbe00e7
:102b20008004780001047800020078001801900009
:102b30002805900098007800b1bf9f00b80590006c
:102b40000200e000020035000110a100b1bf9f00ab
:102b5000ea815700a20020008a0078003002be00ff
:102b60002003be000800780098ff0700480190008d
:102b70000201e90000015100808045003fba970042
:102b80008a01780009007800c800070099009000c9
:102b90000188a3000400320098009000810f5000cb
:102ba00001003d00010078004f05be004f04be004b
:102bb0000080fa0000000600fa874700889fbe00e8
:102bc0008a9fbe008c9fbe008e1f78008004780014
:102bd0000104780082057800180190002805900013
:102be00018077800b80090000200e00002003500ed
:102bf0000e10a100010037001200200070006700d5
:102c0000e0b79f00090032003b02be002b03be006c
:102c1000e00f5200e08f5a00e00f5b00e08f5b0096
:102c2000020032008a86e900010037008a06780037
:102c3000e8026700f5b79f00010032008d06e90049
:102c40003b02be002b03be00e4af9f00f5af9f0028
:102c500086b79f0097b79f00480690000c06e900d2
:102c60000c8040000048eb00efb297007fb2970065
:102c70008903780081047800d8af9f0002047800af
:102c80008bbf9f008a057800034578002a00370033
:102c90000c06e9006fab97006f006300e90f50006e
:102ca00002003c000003b000010037007005b000d6
:102cb0000a03fb001604b100f90f53000c003e009c
:102cc000000378000650a0001606b100f90f53006b
:102cd00007003e00b4b79f00a5b79f00c7b79f008d
:102ce000f40c0700cfb39700afb297003fb2970044
:102cf00080747e000804e9008d06e9006fa8970043
:102d0000ffa897000fb197009fb1970046002000e1
:102d10008301d1000281d3008180d3000080d300e1
:102d20000603e900faff3a00e0af9f00f1af9f0011
:102d300082b79f0093b79f00e10f56000f00360047
:102d40006fa89700ffa897000fb197009fb1970059
:102d5000e00f5000e08f5800e00f5900e08f59005d
:102d6000cbff3a000800e000c9ff3c000d00e00086
:102d7000020034000e18a300c5ff3a008900780055
:102d8000f4b79f00870478005fac97008a41780011
:102d90000b0578008fbd97000500e00010003200a1
:102da0003b02be002b03be00e4af9f00f5af9f00c7
:102db00086b79f0097b79f00e00f5200e08f5a0040
:102dc000e00f5b00e08f5b00050032000c06e900bd
:102dd00083707e000c06e90000c3b30080707e00a3
:102de000ffb297000500e000030032000c06e90086
:102df00000c2b30080707e00480190000201e9002b
:102e00000c0151008c8040000e0278008a0178008d
:102e10000900780025000700990090000188a300b0
:102e20000400320098009000810f500001003d0026
:102e3000010078004f0778004f06be004f05be0026
:102e40004f04be00af01b10000000600820178000f
:102e500001017800f1ff2700e7013700889fbe00dd
:102e60008a1f7800800478004900900002047800ee
:102e7000800f54000100360000047800080178003b
:102e80006a8544001a0078002dfa07001a004400f1
:102e9000000d7800e8844400990c14000048eb0011
:102ea0004f0578004f04be0000000600f28747007f
:102eb000889fbe008a9fbe008c9fbe008e1f780038
:102ec000800478000105780002047800830578000a
:102ed0006107620002003a008b0f540008003900bd
:102ee000080178008a00780009007800dbff0700fd
:102ef0008b0f540002003900880578001e0037004f
:102f0000088655000c017800f00f560001003600cd
:102f100002012000010220007e805700b5fa070060
:102f20008c0678000500370002012000fe80570063
:102f300009007800c9ff0700f0865600ef8f5600a1
:102f4000f9ff3e004461de0000ff2f000091b90050
:102f500002014600fe80570009007800bfff07000d
:102f60000e00e00004003a00080178008a007800b2
:102f700009007800b9ff07000b0078004f077800c0
:102f80004f06be004f05be004f04be002f01b1002a
:102f9000000006000000050000000500000005001c
:102fa000000178000040eb008080fb008180400041
:102fb0000391200063c278000404e00003003a009b
:102fc0001091200060c07800000006009201780097
:102fd000934f520004003a001091200060c0780026
:102fe0000309e800010037000040e800ea4f500004
:102ff000edff360000000600f6874700889fbe0000
:103000008a9fbe008c9fbe008e1f780080047800cf
:103010000104780083057800040678000000eb00c6
:10302000c0b79f008080eb00d1b79f00e0b79f0042
:10303000f2b79f000008200080bf9f009800780032
:10304000010078000005eb00010037000a05e800e8
:10305000304178000204e0000300320053c2b300a4
:10306000834f5100f9ff3a000a00e00004003200eb
:103070000a0178000900780078ff0700180c450065
:103080001807780050c2b3009e4f100033013a0079
:103090000e07e8000e0c780010003700cfb0970044
:1030a0000100a0000b003700cfb097000110a00076
:1030b00008003700cfb097000120a00005003700be
:1030c000cfb097000130a00002003700cfb09700ca
:1030d0000140a000c1b79f00000ce8001800780074
:1030e00090407800b2c2b30082cf5000f1ff3200ae
:1030f00007003c0002c2b30082cf5000f0ff320054
:1031000032c2b30082cf500007003a00efff370011
:10311000d2c2b30082cf5000e0ff320002c3b3003e
:1031200082cf5000e0ff3200a2c2b30082cf500035
:103130000d003a00000ce8001c80e900000e780049
:1031400010007800e0b79f000000e0000f003d0095
:10315000cfb097000100a200c1b79f000000ea00b5
:10316000e0b79f0009003700a50b0700e0b79f00fc
:1031700001003700000ce800180078009000fb0008
:103180000103b100e98f5000faff36004fb09700fd
:103190000008a300020032000010a100c0b79f0089
:1031a00018007800e1c2b30090cf100016003a007a
:1031b0008000eb00d1b79f000000e800000c780011
:1031c000a1c2b30090cf100006003a00000ce80046
:1031d0001c80e900000e780010007800d0b79f0036
:1031e00009003700860b0700d0b79f0001003700a9
:1031f000000ce800180078009000fb000103b1000b
:10320000e98f5000faff36000800780064ff0700dd
:1032100080467800180078001000fb009e0b070025
:1032200091062000810f50003800320012003c004f
:1032300041062000810f5000340032000a003c009b
:1032400011062000810f50002000320031062000be
:10325000810f50009a00320051022000810f50006f
:10326000ae003a00a700370071062000810f500021
:10327000aa003c008200370001072000810f5000a7
:103280005c00320007003c00e1062000810f500086
:1032900074003200f1062000810f50009f003a00b8
:1032a0003900370051072000810f500027003200fd
:1032b00081072000810f50004200320031072000ba
:1032c000810f500095003a00850037008d80fb008b
:1032d0000c01780000fe2f000f0040007c0b07005f
:1032e0000000e0009c00320018007800000ce800ac
:1032f0009041780002fe2f000f014100f880570036
:103300000900780024ff07000e0037008d80fb00c5
:103310008c0178001200200000fe2f000f004000fa
:103320008a0b07000000e0008b003200180ce80058
:1033300002fe2f000f014100f880570009007800bd
:1033400047fa070000054500840037008d80fb0028
:103350008c0178000001eb0000fe2f000f00400000
:103360007a0b07000000e0007b003200180ce80038
:1033700002fe2f000f014100f8805700090078007d
:10338000e4fd0700efff37008d80fb008c01780023
:103390000001eb0000fe2f000f0040006b0b070048
:1033a0000000e0006c003200180ce80002fe2f0064
:1033b0000f014100f88057000900780024fd070044
:1033c000e0ff37008d80fb008c0178000001eb00ee
:1033d00000fe2f000f0040005c0b07000000e00023
:1033e0005d00320018007800000ce8009041780081
:1033f000160037008c0178000001eb00010f20005f
:1034000000fe2f000f004000500b07000000e000fe
:1034100051003200180ce8000fb097009fb09700e1
:103420002fb19700bfb19700e00f5000e08f580018
:10343000e00f5900e08f590003003a008001eb00d3
:10344000a29020004000370083c7b30002fe2f0087
:103450000f014100f880570009007800d6fd0700f1
:10346000b8ff37000b0145008d80fb008c01780010
:1034700000fe2f000f0040008d0b070036003700c4
:103480008d80fb000c01780000fe2f000f00400033
:103490000f0b07000000e0002f003200180078003a
:1034a000000ce8009041780002fe2f000f0141005f
:1034b000f88057000900780043fa0700a1ff3700a1
:1034c00000c8b30080cf560023003a00180ce80073
:1034d0001c80e900000e7800104078000d003700d5
:1034e00000c8b30080cf56001b003a00180ce8005b
:1034f0001c80e900000e78008001eb0010017800cc
:103500001100370001c8b30081cf560012003a0005
:10351000180ce800e0df9f000800370050c2b3003d
:10352000e0df9f000e0c78000000eb00c0b79f00aa
:10353000e0b79f008080eb00d1b79f001300200010
:10354000e2fd2f000f014100f880570009007800cc
:10355000f4fc07007bff3700180ce8000a00780035
:103560004f0778004f06be004f05be004f04be0057
:103570006f01b100000006008200fa00889fbe00c3
:103580008a1f78000005780082047800c13f9f0000
:103590000004eb0010003700090278008801780071
:1035a000a2f72f000f01410081f72f008f8040000c
:1035b0000a00780090fe070008004000880f5000c5
:1035c00004003d00b0042000d04988000084eb00d6
:1035d00004003700000478004f3897001004e00022
:1035e000edff3a00080078004f0578004f04be0058
:1035f0000080fa0000000600f28747008e1f780066
:1036000002027800030178000000e00002003200ae
:103610000007780001003700728757008002eb0036
:103620000100e000010032008102e90070805700d3
:10363000060009000018eb007280570000a8eb009c
:103640002310200093bf9f00aebf9f00b1bf9f001b
:10365000c5bf9f000100e00004003d00b004200051
:10366000d04988000080eb0005003700004feb00d8
:10367000eebf9f00debf9f008400780003000700bc
:103680004f0778002f01b100000006000200fa0089
:10369000881f780000047800e2bf9f006481570013
:1036a00008007800b4ff0700980090000148a300cc
:1036b000010032000080eb004f0478000080fa0027
:1036c000000006008000eb002f0037003c00fa00ed
:1036d000889fbe008a9fbe000004be0002057800dd
:1036e0000f0078004004b1001d0009000018eb0035
:1036f00088a79f00d8af9f008085eb00ebaf9f00ad
:103700006022b8006033b800c0fb2f000f004000fb
:103710001b090700120020008a007800c0fb2f0060
:103720000f004000000807006fb29700ffb297003b
:103730000fbb97009fbb9700dfad97000fa59700c9
:103740000900e000090032000a855500cfd5de00ef
:103750000402450085824d0006834d0087834d009d
:103760000100320004044400880c78004f05be00bc
:103770004f04be000080fa00000006000001eb00cc
:10378000d2ff0700920b370012002000cfff070086
:103790008f0b370022002000ccff3700800078001c
:1037a0001000200002022000828f5000040032002e
:1037b000e9805000e48f5000010036000000eb006b
:1037c000000006000800fa00889fbe008a9fbe0025
:1037d0000004780081057800fe00440011007800a4
:1037e00038119000820f500003003100b084fb00bc
:1037f00080087800030037000800780005090700fa
:1038000080047800b0022000808f54000400320051
:103810000005eb00d0022000808f54001b003a000e
:10382000d982b20009f0a7008904ea008904e900fe
:103830004f4dde00fe00440011007800381190006a
:10384000820f500003003100b084fb008008780034
:103850000300370008007800ee08070080047800b5
:1038600000fd2f0009004000e90f5000070036005e
:103870000b00e00005003200381090000000e0006e
:10388000020032007e0044001008e90000fd2f0015
:10389000090040008005eb00e90f500013003600de
:1038a000381090000000e000740032007e044400f4
:1038b000180ce900710037006a59b9008205400010
:1038c000fe0044001100780038119000820f500073
:1038d00003003100b084fb0080087800030037004b
:1038e00008007800cb0807008004780000fd2f0056
:1038f00009004000e90f500003003e00b1cc200059
:10390000818f5500ecff3400615ab900612bb9007a
:1039100084bf9f0095bf9f00a6bf9f00b7bf9f00b9
:1039200020003700a4002000050020006033b8000c
:103930000fb897009fb897002fb99700bfb99700ad
:10394000830f0700cfcdde000082440081824d004e
:1039500002834d0083834d000403b1000580b10054
:103960000680b1000780b10084bf9f0095bf9f0013
:10397000a6bf9f00b7bf9f00fe0044001100780063
:1039800038119000820f500003003100b084fb001a
:103990008008780003003700080078009d080700c1
:1039a0008004780000fd2f0009004000e90f50005e
:1039b00018003e00d07a240011ae270042e12a0010
:1039c000731420000fba97009fba97002fbb97007f
:1039d000bfbb97000020e10001a8e10002b0e100b8
:1039e00003b8e100cfff34000a0037007e01440035
:1039f00012007800910f500003003100b084fb00ea
:103a000000097800030037000800780081080700eb
:103a1000800478000903b100610220008880400022
:103a2000e98f5400f1ff36001100e000020032007f
:103a30007e044400180ce9000a00e0001600320081
:103a40006000b8006011b8000fba97009fba9700e5
:103a50002fbb9700bfbb970004025000858258001f
:103a6000060359008783590084bf9f0095bf9f00bc
:103a7000a6bf9f00b7bf9f00070037006000b800d7
:103a8000020020000300280080bf9f0091bf9f001c
:103a9000a2bf9f00b3bf9f000fb897009fb89700c9
:103aa0002fb99700bfb997004f05be004f04be0065
:103ab0000080fa00000006000f04b000889fbe00de
:103ac0008a9fbe008c9fbe008e1f78000006780083
:103ad000b1a79f00c29f9f00a3a79f00b49f9f0014
:103ae0007e014600920078003c109000808f5000cc
:103af000040031003180fb00010978000007eb0071
:103b00000e0037000c00780042080700fbff37006a
:103b10007e014600920078003c109000808f50009b
:103b2000030031003180fb000109780002003700fa
:103b30000c007800370807001e0020000103200059
:103b4000810f5000f2ff32006022b8006033b800ed
:103b500094af9f00a5af9f00b6af9f00c7af9f0077
:103b60008002eb0095a79f00e1022000810f50002a
:103b700025003a007e014600920078003c1090003b
:103b8000808f5000050031003180fb000109780072
:103b90006044b8006055b800120037000c0078008f
:103ba0001c080700faff37007e01460092007800eb
:103bb0003c109000808f5000030031003180fb00ea
:103bc00001097800020037000c0078001108070096
:103bd00061045400e0845c0060055d00e0855d00e8
:103be0001e00200001032000810f5000eeff320074
:103bf00098af9f00a9af9f00baaf9f00cbaf9f00c7
:103c00001500200095a79f006022b8006033b8001f
:103c1000d4af9f00e5af9f00f6af9f0087b79f002e
:103c20008002eb00a59f9f006022b80006002000e4
:103c300007ff2300d49f9f00e59f9f00f69f9f00f2
:103c400087a79f006044b8006055b8006033b80093
:103c5000f6a79f0087af9f0085003700e102200094
:103c6000810f50000e003a009fa397000700e0006c
:103c70008c003a005fa89700efa897007fa99700f3
:103c80008fb1970090af9f00a1af9f00b2af9f0090
:103c9000c3af9f001100200091a79f006a0037006a
:103ca00091032000810f5000030034000050a00059
:103cb0009dfa2f0080864600700020000100200041
:103cc0006011b8005faa9700efaa97007fab97003a
:103cd0008fb397000020e10001a8e10002b0e100ed
:103ce00003b8e1000c003c007fa397008fab970066
:103cf0004438dd00cc30de00810070004430dd004f
:103d00004feade000081460081014a00f2a79f00d1
:103d100083af9f003f003700d0002000010020004b
:103d20006011b8005faa9700efaa97007fab9700d9
:103d30008fb397000020e10001a8e10002b0e1008c
:103d400003b8e1001d003c006022b800060020001e
:103d500007fb23005f989700ef9897007f999700e3
:103d60008fa197005e0b07000002be000203be0099
:103d7000d49f9f00e59f9f00f69f9f0087a79f000d
:103d80006168b9000d0a07005f9a9700ef9a9700e3
:103d90007f9b97008fa39700510b07000002be0086
:103da0000203be000800be000a01be00520a07005e
:103db0000004be000205be00160037000d00e00042
:103dc00014003200af9a97000500e00011003a009d
:103dd0006022b8000600200007fe23005f989700cd
:103de000ef9897007f9997008fa197003c0b0700f1
:103df0000002be000203be000800be000a01be00b1
:103e00003d0a07000004be000205be0016002000a7
:103e1000a69f9f005fa89700efa897007fa9970033
:103e20008fb1970061004000e080480060014900c8
:103e3000e0814900d0af9f00e1af9f00f2af9f004b
:103e400083b79f001e0020007e014600920078008c
:103e50003c109000808f5000030031003180fb0047
:103e600001097800020037000c007800690707009c
:103e70000dfd2f0080864600e98f560077ff360043
:103e8000800078000150a0001106b100e58f5000bd
:103e900072ff3600e1022000810f500072ff3200f5
:103ea00001003700e00220000e00e0001b003a0095
:103eb0003c1090000000e00002003200fe004600ce
:103ec0009108e900bf9897000100e0000c00320063
:103ed0000000e00002003200fe0046009108e90008
:103ee0001fa197000200e000090032000000e0007e
:103ef000070032007e0646001c0ee9000400370071
:103f00006022b8006033b8000c0078001c0707007e
:103f1000afa197006118b900500037001fa29700a9
:103f20000400e00016003a005faa9700efaa97008d
:103f30007fab97008fb3970094af9f00a5af9f0012
:103f4000b6af9f00c7af9f00110037007fa1970059
:103f50008fa997004418dd00cc10de0081007000ae
:103f60004410dd00f0a79f0081af9f006102420076
:103f7000e0824a0060034b00e0834b0005003700fd
:103f80005faa9700efaa97007fab97008fb39700c7
:103f90008006780070002000010020006011b80049
:103fa0000020e10001a8e10002b0e10003b8e10057
:103fb000e6ff34000d0078000050a000010720004b
:103fc000810f500015003a00bf9897000c00780050
:103fd000fcfd07006022b800060020000700280052
:103fe0000400e1000588e1000690e1000798e10087
:103ff00013003a00bf9997000300e00007003a0061
:104000006022b8006033b8000c007800dc060700be
:104010006000b8006011b8003b0137003c1290000e
:104020006000b8006011b8000400e0000400320035
:104030007e0646001c0ee9006000b8006011b80062
:104040007fa297008faa9700e00f5200e08f5a00de
:1040500007003a00afa297006128b900c1f107003c
:104060006011b800a6f30700090907002601370010
:104070001faa9700afaa97003fab9700cfab97005e
:1040800068025200e0825a0060035b00e0835b003c
:104090002c0020000402d0008582d2000683d200ca
:1040a0008783d2000c06e900faff3a0004024000c0
:1040b000858248000603490087834900d4af9f00ea
:1040c000e5af9f00f6af9f0087b79f00cf9a97009c
:1040d0000500ea00cf80de006109b9005faa970001
:1040e000efaa97007fab97008fb397000020e10005
:1040f00001a8e10002b0e10003b8e1000f003400c4
:1041000020022000d0498800afa297006128b900a2
:104110002a090700f4ff2f00f5ff2f00f6ff2f00fc
:10412000f7fe27006e0a0700f4ff2f00f5ff2f00af
:10413000f6ff2f00f7fe27001a0037004f9b97006d
:1041400067f92f0007004300cf80de006109b90046
:104150005faa9700efaa97007fab97008fb39700f5
:104160000020e10001a8e10002b0e10003b8e10095
:1041700039003d0020022000d0498800afa29700fe
:104180006128b9000d0907006022b8000600200070
:1041900007012000520a07006022b8000600200034
:1041a000070120004e0a0700d70037006022b80040
:1041b0000600200007fe23000800be000a01be0022
:1041c0009a0807000c0646008d864e000000e000ad
:1041d0000d00350061064600e0864e006022b80002
:1041e0000600200007ff23000800be000a01be00f1
:1041f0003b0907000002be000203be000800be002b
:104200000a01be00040037000802be000a03be0017
:104210000800be000a01be00370907000004be0006
:104220000205be005fa89700efa897007fa997003e
:104230008fb1970061005000e08058006001590084
:10424000e0815900d0af9f00e1af9f00f2af9f0027
:1042500083b79f00020037007fa697008fae9700bc
:10426000e00f5600e08f5e00d0ff3d00fca79f00ee
:104270008daf9f003fa29700cfa2de00612bb90057
:1042800094af9f00a5af9f00b6af9f00c7af9f0040
:1042900000022000010020006011b800cf9a9700b2
:1042a0004faede00050250008c8258000c0359000e
:1042b0008c835900d49f9f00e59f9f00f69f9f002d
:1042c00087a79f005fa89700efa897007fa9970096
:1042d0008fb197000000420081804a0002014b002c
:1042e00083814b00d0b79f00e1b79f00f2b79f00da
:1042f00083bf9f001faa9700afaa97003fab97000c
:10430000cfab97000020e10001a8e10002b0e1007e
:1043100003b8e10006003400dfaa97004f9b970026
:10432000068052000002b000b0a79f000b003300cf
:104330006000b8006011b80090af9f00a1af9f006f
:10434000b2af9f00c3af9f0040032000bfa0970003
:10435000808f500038003c00020037000001eb0065
:10436000b2a79f0042052000bfa1970003015100a2
:104370000000200001f82300780f07000006be00af
:104380002fa297006120b9008c0807000002be0030
:104390000203be000c00be0094b79f00a5b79f00ab
:1043a000b2b79f00c7b79f00390807001fb2970038
:1043b000afb297003fb39700cfb397002f0d070020
:1043c0000002be000203be0094af9f00a5af9f0095
:1043d000b6af9f00c7af9f00bfa29700ff8f5200ec
:1043e00015003c006022b8006033b8000800be0031
:1043f0000a01be00210807000000e0000e003200a4
:104400006000b8007fa3970061006300e00f5000d8
:10441000e08f580008003a007fa697008fae970003
:1044200061064600e0864e00fca79f008daf9f000e
:104430006044b8006055b800afa697006168b90045
:104440005e0807000002be000203be00b4a79f0082
:10445000c5a79f00d6a79f00e7a79f000802be0040
:104460000a03be009e0907000004be000205be004c
:104470007fa097008fa89700530807000002be0096
:104480000203be003fa09700cfa097005fa1970056
:10449000efa19700920907000002be000203be00d0
:1044a0001fa89700afa897003fa99700cfa9970032
:1044b000910807000802be000a03be008e0807002c
:1044c0001faa9700afaa97003fab9700cfab97000a
:1044d000830807000004be000205be006022b80089
:1044e0006033b800e50707000000e00002003a0072
:1044f00020022000d04988005faa97000800be0073
:104500000a01be003f0f07004f0778004f06be00ac
:104510004f05be004f04be000f04b10000000600ae
:10452000cf23b000889fbe008a9fbe008c9fbe0034
:104530008e1f78000004780001007800b2a79f0069
:10454000e39f9f0094af9f00850578008006eb00f5
:104550000b0037007e014400920078003810900074
:10456000808f5000030031003180fb00010978008a
:104570000200370008007800a60507001d00200093
:1045800001032000810f5000f2ff32000006eb0013
:104590006022b8006033b80094b79f00a5b79f00b1
:1045a000b6b79f00c7b79f00e1022000810f5000ff
:1045b0002c003a007e0144009200780038109000f0
:1045c000808f5000090031003180fb000109780024
:1045d0006022b8006033b80094b79f00a5b79f0071
:1045e000b6b79f00c7b79f001a00370008007800d1
:1045f00088050700f6ff37001fb09700afb097009f
:104600003fb19700cfb1970061005000e0805800a3
:1046100060015900e081590090b79f00a1b79f0049
:10462000b2b79f00c3b79f007e014400920078009c
:1046300038109000808f5000030031003180fb0063
:1046400001097800020037000800780071050700b2
:104650001d00200001032000810f5000e6ff320002
:104660001c0020006011b800c29f9d00d39f9d00d8
:104670008004eb006022b8006033b800d4af9f0024
:10468000e5af9f00f6af9f0087b79f00090778004e
:104690000905780053003700810f50000c003a00e4
:1046a0000c00e00059003a005fa89700efa89700bf
:1046b0007fa997008fb1970090b79f00a1b79f0087
:1046c000b2b79f00c3b79f001c0020003b0037001b
:1046d000010320005faa9700efaa97007fab970025
:1046e0008fb3970061024200e0824a0060034b00f2
:1046f000e0834b00d4af9f00e5af9f00f6af9f0073
:1047000087b79f00c3072000830f570023003c009a
:10471000810f500001003200dfac9700c276dd004f
:104720000a00e0001100320085db2f008f8242007a
:104730008d8642006102b9000403b1000580b1001a
:10474000a2002000030020001d00be00d4b79f007f
:10475000e5b79f00dc0707005fb29700efb2970054
:10476000801e420081964a000500370086db2f003c
:104770000f0343008d064300cf91de00828ebe0002
:104780000a05e8001d002000e90f55000b003a0063
:104790000d0747000005eb0008003700810f5000af
:1047a000060032004f909700df9097000000a000b5
:1047b000c0979f00d1979f00c94520007e0144000b
:1047c0009200780038109000808f50000300310074
:1047d0003180fb00010978000200370008007800f2
:1047e0000c05070002fd2f0000014100e10220003e
:1047f000e90f5100a8ff3600810f5000a8ff3200da
:104800000c00e000030032000a003700e002200044
:10481000080037005faa9700efaa97007fab9700c8
:104820008fb3970094b79f00a5b79f00b6b79f00be
:10483000c7b79f000d00e00028003200000178009b
:104840000250a00051062000810f510023003a00c1
:104850008b00780008007800dafb07006022b800bf
:1048600006002000070028000400e1000588e100a0
:104870000690e1000798e1000b003a000b00e00011
:1048800021003200381290006000b8006011b800ba
:104890000400e000040032007e044400180ce9002b
:1048a0006000b8006011b8001fb29700afb2970067
:1048b0003fb39700cfb397000002420081824a00c5
:1048c00002034b0083834b0094b79f00a5b79f0062
:1048d000b6b79f00c7b79f00120037000000e00086
:1048e00005003500381090000000e00002003200a2
:1048f0007e0044001008e9000d00e00009003a00c5
:1049000060012000d04988006022b8006033b80000
:10491000080078009a0407006000b8006011b80031
:10492000780337004f9e9500df9e9500e00f5600fc
:10493000e08f5e0007003a009faa97006128b90047
:1049400088ef07006011b8006df10700d00607007e
:104950006c0337001fb09700afb097003fb19700ce
:10496000cfb197005faa9700efaa97007fab97009f
:104970008fb397000400e1000588e1000690e10094
:104980000798e10020003a0090002000010020007c
:104990006011b8001fb29700afb297003fb3970005
:1049a000cfb397000020e10001a8e10002b0e100d0
:1049b00003b8e10014003c00bfa29700fe8f520034
:1049c0000a003c000c00be00050378000603e90065
:1049d000030033008100d1000080d300fbff3700cb
:1049e000e00f5000e08f580007003a009fab97009f
:1049f0006138b900f10607000004be000205be00e0
:104a00000c00be0060003700220020006f9e97005f
:104a1000110009000206d8000000ea00cf80de0085
:104a20006109b9001fb29700afb297003fb397007a
:104a3000cfb397000020e10001a8e10002b0e1003f
:104a400003b8e1000f00340020022000d0498800a4
:104a50009faa97006128b900d8060700f4ff2f002d
:104a6000f5ff2f00f6ff2f00f7fe27001c080700b8
:104a7000f4ff2f00f5ff2f00f6ff2f00f7fe2700b1
:104a80008e0037006f9b970067f92f0007004300e7
:104a9000cf80de006109b9001fb29700afb2970066
:104aa0003fb39700cfb397000020e10001a8e100d9
:104ab00002b0e10003b8e1000d003d00200220003b
:104ac000d04988009faa97006128b900bb0607005b
:104ad0006022b8000600200007012000000807003f
:104ae0006022b80006002000070120007300370094
:104af0000a00e0000e0032000a0037004274dd00b8
:104b000086db2f000f03430008044300a2002000af
:104b1000030020001800be00eb060700008cbe005a
:104b20000a05e800e80f5500f4ff34000e07e8001e
:104b30009fb39700e88f540002003c00878f540019
:104b4000050034004270dd008cdb2f000f064600ac
:104b5000000046005c0037009fb69700f18f5600ba
:104b6000f8ff3c00e98f560009003a001fa99700a2
:104b70006110b900910607000004be000205be00e6
:104b80004f989500df9895008f0607004700370083
:104b90009fb19700e88f51001c003c001faa9700ae
:104ba0006120b900850607000004be000205be00b2
:104bb0004f989500df989500830607000002be001d
:104bc0000203be000800be000a01be00c4070700c1
:104bd0000004be000205be009fb29700688012006c
:104be0004200dd00218e2000008040001000be0049
:104bf000720607000002be000203be000800be00ed
:104c00000a01be0007070700be0237003fa3970056
:104c10007b004300d2ff2f009fb3970002b9b90079
:104c200002014000fe0f51000a003c004f98950021
:104c3000df9895000201e900030033008100d100f4
:104c40000080d300fbff3700e00f5000e08f5800da
:104c5000bcff3a001fae97006160b900570607001d
:104c60000004be000205be004f989500df98950035
:104c7000550607000002be000203be000800be0089
:104c80000a01be00960707000004be000205be0030
:104c90009fb697006a8056004200dd00218e2000fa
:104ca000008040001000be00440607000002be0065
:104cb0000203be000800be000a01be00880707000c
:104cc000900237000e07e9004001be00e00f5100de
:104cd000e08f5900fbff3200940020009fb0970046
:104ce000110009008400d800010278000001eb00e7
:104cf000d2af9f000400e000520032009fb1970045
:104d00000300e00001003d0069024200680012005b
:104d10004200dd00218e2000008040001005be0012
:104d200046db2f000f0343006044b8008002eb0015
:104d3000d5af9f00c4a79f000800be00850478007f
:104d4000060478000002be002d0037005806be00a1
:104d50000a01be000c00be00d4b79f00e5b79f005b
:104d6000460607005fb29700efb2970004034000c9
:104d700085834800068cbe000a01be0000a02c00fe
:104d8000a1b92300f6b79f0087bf9f00ac050700bd
:104d90000002be000a01be000c00be00d4b79f0096
:104da000e5b79f00450607000001be005fb297000f
:104db000efb297000400be00430607000002be00e9
:104dc0000900e8007fb397008fbb97005fae9700a4
:104dd0008c8f540009003a00e00f5300e08f5b0015
:104de00006003a0080067800fd07b200ddaf9f00a4
:104df0009fb09700e980500091b79f008004780031
:104e00008e8f5400d1ff3a000404be004fa29700d9
:104e1000e00f5400e08f5c00060032004270dd00bd
:104e200082db2f000f014100000041000888be0016
:104e30000e07e800690212009fb1970084814100cb
:104e400093b79f000002eb00c4a79f00dfae97005e
:104e50006c003700cfa29700fd825200c5a79f00cb
:104e60000e06e900fc07b2006033b800d6af9f0021
:104e7000e7af9f004260dd0087db2f008f83430098
:104e800080834300d7a79f001704be006055b80079
:104e9000cd55dd004348de008b0570004d4ddd0033
:104ea0004340de000a057000cd44dd000004eb0045
:104eb0005fa99700efa99700080441008984490081
:104ec00060054d00e0854d0004a02c00a5b923002d
:104ed0006033b8000440e10005c8e10006d0e100fd
:104ee00007d8e1000e0036000800be000a01be002f
:104ef000ae090700d0af9f00e1af9f0004a02c00d7
:104f0000a5b923006033b8000800be000a01be0046
:104f1000ad090700dfa39700808bbe0005003700b6
:104f20005fa097000888be006011b800d2af9f0054
:104f3000e3af9f000e00e900f007b200800f5600bb
:104f40000b003a008d0f56000e0032004260dd006b
:104f500083db2f008f814100008041001000be00e4
:104f6000e00f5000e08f5800ed01320002003700e2
:104f70008d0f5600030032000c06e900fc07b2005a
:104f8000bcff37005faa9700efaa9700e00f52001e
:104f9000e08f5a001b0032009fb29700e982420066
:104fa00095b79f008d06e900fd07b2008e8f560071
:104fb0000d003a000d07e900fe07b2000e00e900ff
:104fc000f007b2004200dd0086db2f000f03430034
:104fd00000004300c270dd00810043001001be00ec
:104fe00031187100219071004268dd0083db2f00d1
:104ff0008f814100008041005faa9700efaa9700cf
:105000000488be009fb29700f18f520091ff3400d8
:10501000f28f520009003a004269dd0086db2f0062
:105020000f03430002014300e00527009108200020
:10503000b20f1000a28f180086ff36008d03780093
:10504000e28f20000000eb0087004000f107b20073
:105050008e8f50000d003200c208dd0083db2f0070
:105060008f814100818041001104be005202be00c8
:10507000840f5400858f5c00040039000d003e0051
:105080000000e800e20f5000efff3a001fb2970067
:10509000f20f520007003a00d7af9f006044b800fb
:1050a0006055b8008006eb000800be000a01be0093
:1050b00067003700990020009fb29700fb8f5200d5
:1050c00001003c00190020004fa397000903430092
:1050d000c6a79f00100020000900dd000000e900c5
:1050e0006101b900d2a79f00e3a79f000aa02c008e
:1050f000abb92300890178008301e9000300330084
:105100008b85d1000a85d300fbff370007047800a8
:105110006000b800d0af9f00e1af9f000a02be0060
:105120001fb59700870578002d003700c240dd00cd
:1051300086db2f000f034300810043001101be00f6
:105140000203be00090678000c06e90003003300e4
:105150008703d1000683d300fbff37005fae9700c3
:10516000efae97000603460087834e008688be0098
:105170006fa0970083066000dfa0970002866000a2
:105180000401be000c00be00d4b79f00e5b79f002d
:10519000f6b79f0087bf9f004b050700d0af9f0069
:1051a000e1af9f000800e8005fb29700efb2970000
:1051b0007fb397008fbb97008b0f540006003a0017
:1051c000e00f5300e08f5b0003003a008005780099
:1051d000fb07b2006905550000047800f807b2002b
:1051e0008e0f5400d1ff3a008b0378009ab79f00ce
:1051f0005fa89700efa89700e00f5000e08f5800dd
:105200008fff32000e01e800f207b200870f510055
:10521000070032004277dd0083db2f008f814100e1
:105220000e874100008fbe000207780084ff370020
:105230000e00e900f007b2004200dd0084db2f0021
:105240000f024200000042001000a0007cff370067
:10525000dfaa970005864600fc07b2008e0f5600b5
:1052600009003a000e07e800fe07b2000e02e9004e
:105270004222dd0086db2f000f03430004024300bf
:10528000000aeb00341278006022b80056d62c00d9
:10529000d71c2400120607000004be000205be0051
:1052a0004266dd0087db2f008f8343000c864300be
:1052b0001c00be00c40407000002be000203be00c2
:1052c0000800be000a01be000b0507008d06e800bd
:1052d000e28f5600deff3a000004be000205be0069
:1052e0001fae97006160b900b40407000002be0061
:1052f0000203be000800be000a01be00f805070058
:105300000002be000203be00d4a79f00e5a79f00d5
:10531000f6a79f0087af9f00cfa297005503b0006c
:10532000c59f9f006f9b970006835200d69f9f00ea
:10533000bfa39700868f5300060034000600e000ec
:105340000b003500060678001d0020009db79f0069
:10535000030037003fa697000000eb0090b79f00c6
:1053600040032000800f560037003c000300370048
:105370001100200091b79f000006eb00920620006c
:105380000c0151000000200001f82300730b0700fe
:105390003f0407005fa29700efa297007fa397004a
:1053a0008fab9700350907000002be000203be0064
:1053b000f49f9f0085a79f0096a79f00a7a79f0027
:1053c000520320000c0151000000200001f82300ce
:1053d000620b07002e0407000002be000203be009d
:1053e0005fa09700efa097007fa197008fa997007b
:1053f000c40907000004be000205be000002be0092
:105400000203be005fa09700efa097007fa1970066
:105410008fa99700b20407007f9a97008fa2970088
:105420001fa39700afa39700b30407000002be00bc
:105430000203be00d4a79f00e5a79f00f6a79f0028
:1054400087af9f00080037006000b8006011b80007
:10545000f09f9f0081a79f0092a79f00a3a79f0096
:105460000004be000205be00dfa897000180e8002e
:10547000f007b2008e0f50004e0032004200dd00f7
:1054800082db2f000f014100000041001001be002f
:10549000f04f2600d1dc2100800f5100818f590090
:1054a0000e003e00e00f5100e08f590005003a0069
:1054b000dfa9970063804100f007b2008e0f500013
:1054c000250032001faa97006120b900a5ec070053
:1054d0000200200003e823001600370000502600d9
:1054e000d1dc2100800f5100818f59000300320070
:1054f0009faa97006128b9000b0037005fab9700a7
:1055000063014300f207b2009fab97006138b90016
:105510008e0f510004003a0092ec070002002000b8
:1055200003f02300030037008eec07000200200088
:1055300003f4230072ee0700d50307000002be004b
:105540000203be000800be000a01be006a04070094
:105550000004be000205be00500320000c005000f5
:10556000e10f5000130034006022b8000600200054
:1055700007ff23000800be000a01be006109070002
:105580006022b8006033b800bc0307000000e000f0
:1055900008003a006022b8000600200007ff230040
:1055a0000800be000a01be00530407000004be004c
:1055b0000205be003fa09700e3061000ef98970099
:1055c000818656000802be000a03be005fa0970055
:1055d000efa097007fa197008fa9970046040700ce
:1055e0007f9a97008fa297001fa39700afa3970001
:1055f0003b0407000002be000203be0094af9f0000
:10560000a5af9f00b6af9f00c7af9f006480560054
:10561000cf98970001f0a100810f500033003c00ab
:105620000400be00af0807006022b800060020009a
:10563000073424007d0307000000e0001b00350054
:105640009fb297000500e000070032005f9b9700c3
:1056500006066e000cf0a7000c06ea000c06ea0035
:105660004f66de009cb79f006022b8000600200055
:1056700007fe23001fa89700afa897003fa9970037
:10568000cfa99700160507000002be000203be0066
:1056900094af9f00a5af9f00b6af9f00c7af9f001c
:1056a000cfa297008502e800c5a79f004fa09700f2
:1056b0004003b0008d0f50000a003d001fb397005b
:1056c0000600e000090032006022b8006033b80034
:1056d0000800be000a01be00680307000000e000e9
:1056e0000200320020022000d04988004fa297001b
:1056f0001fa89700afa897003fa99700cfa99700d0
:10570000c00a07004f0778004f06be004f05be00d5
:105710004f04be00ef1fb100ef03b1000000060010
:105720000c07780014fe3700e4874700889fbe000e
:105730008a9fbe008c9fbe008e1f780000047800f8
:10574000020778000100e000fa003500bbf62f00e8
:105750008a012000e18f500004003400e28f5000e5
